S0180000506C61736D61436F6E74726F6C6C65722E737265638A
S11300000C9454000C940C020C944D020C9471004A
S11300100C9471000C9471000C9471000C94710098
S11300200C9471000C9471000C9471000C94BE0338
S11300300C9471000C9471000C94E7010C94710001
S11300400C9471000C9471000C9471000C94710068
S11300500C9471000C9471000C9471000C94710058
S11300600C9471000C9471000E1111111F191B1FB7
S11300701111111F040404040404040404150E04DF
S1130080040E15040404040401060C180E030608E7
S11300901111110A040810000F050509111F1100A0
S11300A00E0011131519110011241FBECFEFD8E053
S11300B0DEBFCDBF11E0A0E0B1E0EEE8FAE102C09E
S11300C005900D92AC33B107D9F721E0ACE3B1E070
S11300D001C01D92AD37B207E1F70E949C070C9452
S11300E0450D0C940000569857985E9A5F9A549860
S11300F055985C9A5D9A089599B196FB332730F927
S11301004F99326020913D01822F8370381769F036
S113011044E0249FC0011124932F982B90933D0118
S1130120913E29F081E0923D19F080E008958FEF2F
S1130130089599B194FB332730F94D993260209199
S11301403C01822F8370381769F044E0249FC0017A
S11301501124932F982B90933C01913E29F081E038
S1130160923D19F080E008958FEF089594B197605F
S113017094B997B19C6397B92998662311F0289A8A
S113018001C0289898B1937C98B983FD459A82FD63
S1130190449A81FD439A80FD429A2A9A8AE18A957B
S11301A0F1F700C02A98089594B1976094B9299AF8
S11301B0882311F0289A01C028982A9A87B1837C51
S11301C087B988B18C6388B98AE18A95F1F700C050
S11301D02A98359B02C088E001C080E0349984608D
S11301E033998260329981600895CF93DF93C82F49
S11301F00E94D400D82FD295D07F8C2F0E94D40097
S11302008D2BDF91CF910895CF93DF93C82FD62FF5
S113021082958F700E94B6006D2F8C2FDF91CF9145
S11302200C94B60080E00E94F500880F880B0895B6
S113023060E083E00E94B6008FE19EE40197F1F74D
S113024000C0000060E083E00E94B60087EB91E00C
S11302500197F1F700C0000060E083E00E94B6005F
S11302600E9412018111FCCF60E082E00E94B6007E
S11302700E9412018111FCCF60E088E20E94040117
S11302800E9412018111FCCF60E081E00E94040110
S11302900E9412018111FCCF60E086E00E940401FB
S11302A00E9412018111FCCF60E08CE00C940401E7
S11302B0CF93DF93D82FC62F0E9412018111FCCF58
S11302C08C2F90E4D99F800D112460E080680E94F7
S11302D00401C0E00E941201882311F0C1E0FACFAA
S11302E08C2FDF91CF9108950F931F93CF93DF93BA
S11302F0EC018E018881882359F00E94120181113A
S1130300FCCF219661E0F80180810E940401F1CFC5
S1130310DF91CF911F910F9108950F931F93CF9366
S1130320DF93182FEB010E9412018111FCCF28E00A
S1130330129FC001112460E080640E9404018E01B8
S1130340085F1F4F0E9412018111FCCFFE018491AE
S113035061E00E94040121960C171D0799F70E9481
S113036012018111FCCF60E080E8DF91CF911F91F1
S11303700F910C94040182E084BD93E095BD8093B9
S11303806E008AEF87BD08952FB7F89460913E01FF
S113039070913F0180914001909141012FBF0895D8
S11303A0E4E6F0E080818F7D8083EEE6F0E08081FA
S11303B08260808308958FB7F89410923E01109262
S11303C03F0110924001109241018FBF08951F9286
S11303D00F920FB60F9211248F939F93AF93BF93F5
S11303E080913E0190913F01A0914001B091410163
S11303F00196A11DB11D80933E0190933F01A093EE
S11304004001B0934101BF91AF919F918F910F90A3
S11304100FBE0F901F9018951F920F920FB60F9258
S113042011242F933F934F935F936F937F938F93F5
S11304309F93AF93BF93EF93FF934A9B07C0109290
S1130440460110924701109242010DC0809149016A
S1130450882391F081E08093460180934701809343
S113046042010E94DB018091530190915401846008
S11304709093540180935301FF91EF91BF91AF91F9
S11304809F918F917F916F915F914F913F912F91A8
S11304900F900FBE0F901F9018951F920F920FB6DA
S11304A00F9211248F934B9B04C081E080934901E8
S11304B002C0109249018F910F900FBE0F901F90B0
S11304C0189580937C0085E38A95F1F7000086EC0B
S11304D080937A0080917A0086FDFCCF2091780089
S11304E08091790090E0982F8827820F911D0895BC
S11304F068E870E08AE00E948D0160E870E08BE0BB
S11305000E948D0168E770E08CE00E948D0160E735
S113051070E08DE00E948D0168E670E08EE00E943C
S11305208D0160E970E08FE00E948D0168E970E060
S113053089E00E948D0160EA70E088E00C948D01EE
S11305408F929F92AF92BF92CF92DF92EF92FF92DF
S1130550CF93DF938091530190915401892B09F437
S113056002C18091660190916701892B09F0FBC05B
S113057080914E018F9380914D018F9380E091E0A3
S11305809F938F938CE691E09F938F930E94320AFE
S11305908FE080936C010F900F900F900F900F904D
S11305A00F9080914A01D0914C01C0914B0181116F
S11305B03DC080904F0190905001A0905101B090A7
S11305C05201C501B4010E948C086B017C01072E05
S11305D0000C880B990B0E94C4089B01AC01C50157
S11305E0B4010E94A80720E030E040E251E40E94F8
S11305F079090E94E6090E948C087F936F93DF9229
S1130600CF92DF93CF9381E191E09F938F9385E520
S113061091E09F938F930E94320A8DB79EB70A96FA
S11306200FB6F8949EBF0FBE8DBF3CC0809068018A
S113063090906901A0906A01B0906B01C501B4016A
S11306400E948C086B017C01072E000C880B990B0F
S11306500E94C4089B01AC01C501B4010E94A80713
S113066020E030E040E251E40E9479090E94E6096A
S11306700E948C087F936F93DF92CF92DF93CF9386
S113068086E291E09F938F9385E591E09F938F930A
S11306900E94320A8DB79EB70A960FB6F8949EBF91
S11306A00FBE8DBF89E08093550188E08093570188
S11306B080914A01811124C080914501882319F059
S11306C08AE080935F0180914801882319F08DE0CE
S11306D08093790180914401882319F08BE0809301
S11306E0760180914301882319F08CE08093760190
S11306F080914201882339F08EE08093760103C013
S113070085E4809379011092650110927C0160E088
S113071080E00E94580181110AC00E9418010E94C1
S1130720780281E090E0909354018093530185E531
S113073091E00E94740160E081E00E9458018111FF
S11307400AC00E9418010E94780281E090E0909310
S11307505401809353018CE691E00E94740110923D
S1130760540110925301DF91CF91FF90EF90DF90ED
S1130770CF90BF90AF909F908F9008951F920F924B
S11307800FB60F9211242F933F934F935F936F9360
S11307907F938F939F93AF93BF93EF93FF930E94A5
S11307A0A002FF91EF91BF91AF919F918F917F91A3
S11307B06F915F914F913F912F910F900FBE0F90CA
S11307C01F901895CF92DF92EF92FF92CF93DF9311
S11307D09DE088E10FB6F894A895809360000FBE61
S11307E090936000A8952FEF80E792E0215080401D
S11307F09040E1F700C000000E941801A89580E035
S113080090E00E94E50CEC0190934E0180934D0121
S113081083E090E00E94E50CBC0180E090E00E943F
S1130820C20820E030E040E251E40E941A086093DC
S11308304F0170935001809351019093520186E0CF
S113084090E00E94E50CBC0180E090E00E94C208A8
S113085020E030E040E251E40E941A08609368010D
S11308607093690180936A0190936B01C535D140FF
S113087060F08CE890E090934E0180934D0168E71E
S113088075E080E090E00E94EB0CC0904F01D090A6
S11308905001E0905101F090520120E030E040EA34
S11308A050E4C701B6010E94740918164CF020E008
S11308B030E0A901C701B6010E94150887FF12C0E4
S11308C080E090E0A0E8BFE380934F019093500153
S11308D0A0935101B09352016AE070E083E090E08C
S11308E00E94EB0CC0906801D0906901E0906A010D
S11308F0F0906B0120E030E040EA50E4C701B6011B
S11309000E94740918164CF020E030E0A901C701D8
S1130910B6010E94150887FF12C080E090E0A0E8AD
S1130920BFE38093680190936901A0936A01B09337
S11309306B016AE070E086E090E00E94EB0C0E949C
S1130940BB010E94D00180EA9FE0909389008093CC
S113095088008091810088608093810080916F007D
S1130960826080936F008091810085608093810014
S1130970259A2D98249A2C9A519A599A239A2B9A0B
S1130980509A589A3998419A52985A9A53985B9A1D
S113099080916900807F80936900809169008560FF
S11309A0809369008DB383608DBB0E9473000E94A5
S11309B07802109267011092660183E090E09093B0
S11309C05401809353017894DF91CF91FF90EF907D
S11309D0DF90CF900895CF92DF92EF92FF920E9422
S11309E07C00813051F460914D0170914E0161158C
S11309F0710501F1615071090CC08F3FD9F4609108
S1130A004D0170914E01643581E0780798F46F5F71
S1130A107F4F70934E0160934D01809153019091EB
S1130A2054018160909354018093530180E090E0DD
S1130A300E94EB0C0E94990090914A01911156C0BA
S1130A408130D9F4C0904F01D0905001E090510111
S1130A50F090520120E030E0A901C701B6010E94E4
S1130A60740918160CF09CC02DEC3CEC4CEC5DE3C6
S1130A70C701B6010E94A8071DC08F3F09F090C0AE
S1130A80C0904F01D0905001E0905101F09052017C
S1130A9020E030E040EA50E4C701B6010E941508A6
S1130AA087FF7EC02DEC3CEC4CEC5DE3C701B60146
S1130AB00E94A90760934F017093500180935101E4
S1130AC0909352012091530130915401226030934C
S1130AD054012093530120E030E040E251E40E94AD
S1130AE079090E94930883E090E054C08130D9F4DE
S1130AF0C0906801D0906901E0906A01F0906B01A8
S1130B0020E030E0A901C701B6010E94740918165B
S1130B100CF046C02DEC3CEC4CEC5DE3C701B60197
S1130B200E94A8071CC08F3FD9F5C0906801D090DF
S1130B306901E0906A01F0906B0120E030E040EA46
S1130B4050E4C701B6010E94150887FF29C02DECA7
S1130B503CEC4CEC5DE3C701B6010E94A90760932D
S1130B6068017093690180936A0190936B012091ED
S1130B705301309154012260309354012093530166
S1130B8020E030E040E251E40E9479090E94930899
S1130B9086E090E0FF90EF90DF90CF900C94EB0C08
S1130BA0FF90EF90DF90CF900895CF92DF92EF9275
S1130BB0FF9290914A01809148019111FBC090915C
S1130BC04901891749F0809153019091540188603B
S1130BD0909354018093530180914901809348017B
S1130BE080914701811133C080914901882379F1B3
S1130BF080914B0190914C01805591098937910561
S1130C00A8F480914601811122C081E080934601BD
S1130C108093420180915301909154018460909398
S1130C205401809353010E94DB0111C0809146015D
S1130C30882369F0109246018091530190915401E8
S1130C4084609093540180935301109242018091E7
S1130C504201882361F10E94C4010E94C2086B0111
S1130C607C0120E030E04AE754E460914F01709148
S1130C70500180915101909152010E9479099B0188
S1130C80AC01C701B6010E947409181684F480915E
S1130C9053019091540184609093540180935301C3
S1130CA01092420181E0809345010E94DB01809112
S1130CB04601882321F080914801811102C01092DD
S1130CC0450180914501882309F45DC00E94C40157
S1130CD00E94C2086B017C0120E030E04AE754E442
S1130CE0609168017091690180916A0190916B0132
S1130CF00E9479099B01AC01C701B6010E947409E5
S1130D0018160CF040C080914D0190914E01BC0129
S1130D106E5F7F4F20914B0130914C016217730736
S1130D20B0F440914401411104C040914301411188
S1130D3009C04091530150915401406450935401AF
S1130D40409353011092440141E0409343010297C0
S1130D5028173907A8F480914401882321F0809151
S1130D604301882349F08091530190915401806498
S1130D70909354018093530181E0809344010DC00A
S1130D8062177307B0F180914401811109C0809109
S1130D904301811105C0109244011092430129C0FE
S1130DA080915301909154018064909354018093F5
S1130DB05301F1CF81110CC080914401811108C00D
S1130DC080914301811104C080914501882349F039
S1130DD080915301909154018062909354018093C7
S1130DE05301109248011092440110924301109251
S1130DF04501FF90EF90DF90CF90089580914801D6
S1130E00882311F02D9A01C02D98809145018111FC
S1130E1002C02C9801C02C9A80914A01811102C011
S1130E20599801C0599A80914401811102C02B98AC
S1130E3001C02B9A80914301811102C058980895F2
S1130E40589A089580E490E00E9461029C01BC01DC
S1130E5080E090E0233941E0340778F40E94C2082E
S1130E6028ED3EE949E85FE30E9479099B01AC0162
S1130E7063E373E588E294E420C02E33334078F4CE
S1130E800E94C20820E733E44CEA5EE30E94790939
S1130E909B01AC0160EA7AEC8BEB93E40EC00E94F8
S1130EA0C20824E931E346EC5EE30E9479099B0120
S1130EB0AC016DEC7CEC82ED93E40E94A8070E94E7
S1130EC093086634710510F460E070E080914B0182
S1130ED090914C01861B970B039768F070934C011B
S1130EE060934B01809153019091540180619093E0
S1130EF054018093530180914A01319B0FC0882390
S1130F0049F080915301909154018062909354016F
S1130F108093530181E080934A010895811109C0AF
S1130F208091530190915401806290935401809375
S1130F30530110924A0108950E94E203A8950E9469
S1130F40EB040E9422070E94D5050E94FE06F6CFFC
S1130F505058BB27AA270E94C0070C943A090E9444
S1130F602C0938F00E94330920F039F49F3F19F41A
S1130F7026F40C9429090EF4E095E7FB0C9423095C
S1130F80E92F0E944B0958F3BA17620773078407C5
S1130F90950720F079F4A6F50C946D090EF4E0950C
S1130FA00B2EBA2FA02D0B01B90190010C01CA011F
S1130FB0A0011124FF27591B99F0593F50F4503ECA
S1130FC068F11A16F040A22F232F342F4427585FBC
S1130FD0F3CF469537952795A795F0405395C9F7D4
S1130FE07EF41F16BA0B620B730B840BBAF091508C
S1130FF0A1F0FF0FBB1F661F771F881FC2F70EC02B
S1131000BA0F621F731F841F48F4879577956795FD
S1131010B795F7959E3F08F0B0CF9395880F08F0E9
S11310209927EE0F9795879508950E94FF0808F475
S113103081E008950E942E080C943A090E94330915
S113104058F00E942C0940F029F45F3F29F00C94D9
S1131050230951110C946E090C9429090E944B091F
S113106068F39923B1F3552391F3951B550BBB27D3
S1131070AA2762177307840738F09F5F5F4F220F18
S1131080331F441FAA1FA9F335D00E2E3AF0E0E80F
S113109032D091505040E695001CCAF72BD0FE2F59
S11310A029D0660F771F881FBB1F261737074807ED
S11310B0AB07B0E809F0BB0B802DBF01FF279358A5
S11310C05F4F3AF09E3F510578F00C9423090C943D
S11310D06E095F3FE4F3983ED4F386957795679560
S11310E0B795F7959F5FC9F7880F911D96958795DA
S11310F097F90895E1E0660F771F881FBB1F6217F9
S113110073078407BA0720F0621B730B840BBA0BB6
S1131110EE1F88F7E09508950E9493086894B11132
S11311200C946E0908950E94530988F09F5798F013
S1131130B92F9927B751B0F0E1F0660F771F881FD8
S1131140991F1AF0BA95C9F714C0B13091F00E94F2
S11311506D09B1E008950C946D09672F782F8827E5
S1131160B85F39F0B93FCCF3869577956795B39519
S1131170D9F73EF490958095709561957F4F8F4F88
S11311809F4F0895E89409C097FB3EF4909580958D
S1131190709561957F4F8F4F9F4F9923A9F0F92F39
S11311A096E9BB279395F695879577956795B795B7
S11311B0F111F8CFFAF4BB0F11F460FF1BC06F5F9D
S11311C07F4F8F4F9F4F16C0882311F096E911C0AF
S11311D0772321F09EE8872F762F05C0662371F0D0
S11311E096E8862F70E060E02AF09A95660F771FE4
S11311F0881FDAF7880F9695879597F90895990FC0
S11312000008550FAA0BE0E8FEEF16161706E807CC
S1131210F907C0F012161306E407F50798F0621BED
S1131220730B840B950B39F40A2661F0232B242BC2
S1131230252B21F408950A2609F4A140A6958FEFE1
S1131240811D811D089597F99F6780E870E060E033
S113125008959FEF80EC089500240A94161617064B
S113126018060906089500240A9412161306140693
S113127005060895092E0394000C11F4882352F0F6
S1131280BB0F40F4BF2B11F460FF04C06F5F7F4FAE
S11312908F4F9F4F089557FD9058440F551F59F095
S11312A05F3F71F04795880F97FB991F61F09F3F4F
S11312B079F087950895121613061406551FF2CF78
S11312C04695F1DF08C0161617061806991FF1CFC8
S11312D086957105610508940895E894BB276627EF
S11312E07727CB0197F908950E94FF0808F48FEF40
S11312F008950E948C090C943A090E942C0938F034
S11313000E94330920F0952311F00C9423090C94C6
S1131310290911240C946E090E944B0970F3959FBE
S1131320C1F3950F50E0551F629FF001729FBB27D8
S1131330F00DB11D639FAA27F00DB11DAA1F649F74
S11313406627B00DA11D661F829F2227B00DA11D27
S1131350621F739FB00DA11D621F839FA00D611DAD
S1131360221F749F3327A00D611D231F849F600DCE
S1131370211D822F762F6A2F11249F5750409AF0F7
S1131380F1F088234AF0EE0FFF1FBB1F661F771F83
S1131390881F91505040A9F79E3F510580F00C944E
S11313A023090C946E095F3FE4F3983ED4F38695C9
S11313B077956795B795F795E7959F5FC1F7FE2BEE
S11313C0880F911D9695879597F908950E941A0A9A
S11313D030F09F3710F40C946E090C94F1090C94BE
S11313E00C0A882371F4772321F09850872B762FE9
S11313F007C0662311F499270DC09051862B70E025
S113140060E02AF09A95660F771F881FDAF7880F35
S11314109695879597F908959F3F31F0915020F460
S1131420879577956795B795880F911D96958795BC
S113143097F908950E945309A0F0BEE7B91788F4FC
S1131440BB279F3860F41616B11D672F782F8827A5
S1131450985FF7CF869577956795B11D93959639E3
S1131460C8F30895AEE0B0E0E8E3FAE00C941C0D94
S11314700D891E8986E08C831A8309838FEF9FE789
S11314809E838D83AE01475E5F4F6F89788DCE0159
S113149001960E94540AEF81F885E00FF11F108233
S11314A02E96E4E00C94380DABE0B0E0EAE5FAE007
S11314B00C940E0D6C017B018A01FC0117821682CB
S11314C0838181FFCCC1CE0101963C01F601938159
S11314D0F70193FD859193FF81917F01882309F49E
S11314E0BAC1853239F493FD859193FF81917F01CF
S11314F0853229F4B60190E00E944B0CE7CF912C81
S1131500212C312CFFE1F315D8F08B3279F038F42B
S1131510803279F08332A1F4232D20611DC08D32F5
S113152061F0803369F4232D216016C0832D82601D
S1131530382EE32DE4603E2E2AC0F32DF8601DC042
S113154037FC2DC020ED280F2A3040F08E32B9F43C
S113155036FC81C1232D2064322E19C036FE06C00C
S11315608AE0989E200D1124922E11C0EAE02E9E4E
S1131570200D1124222EF32DF0623F2E08C08C364C
S113158021F4832D8068382E02C0883641F4F70197
S113159093FD859193FF81917F018111B3CF982FA2
S11315A09F7D9554933028F40C5F1F4F9FE39983DC
S11315B00DC0833631F0833771F0833509F059C09B
S11315C021C0F801808189830E5F1F4F8824839492
S11315D0912C530113C02801F2E04F0E511CF80165
S11315E0A080B18036FE03C0692D70E002C06FEFA9
S11315F07FEFC5010E94400C4C018201F32DFF775F
S11316003F2E16C0280122E0420E511CF801A08092
S1131610B18036FE03C0692D70E002C06FEF7FEF2A
S1131620C5010E94350C4C01F32DF0683F2E820158
S113163033FC1BC0822D90E088169906B0F4B601E5
S113164080E290E00E944B0C2A94F4CFF50137FC21
S1131650859137FE81915F01B60190E00E944B0CA9
S113166021102A9421E0821A91088114910471F7BF
S1131670E8C0843611F0893641F5F80137FE07C019
S113168060817181828193810C5F1F4F08C06081EA
S11316907181072E000C880B990B0E5F1F4FF32DE1
S11316A0FF763F2E97FF09C09095809570956195C0
S11316B07F4F8F4F9F4FF0683F2E2AE030E0A30109
S11316C00E94870C882E861845C0853731F4232D57
S11316D02F7EB22E2AE030E025C0932D997FB92EBB
S11316E08F36C1F018F4883579F0B5C0803719F019
S11316F0883721F0B0C0E92FE061BE2EB4FE0DC0E2
S1131700FB2DF460BF2E09C034FE0AC0292F2660C9
S1131710B22E06C028E030E005C020E130E002C06F
S113172020E132E0F801B7FE07C060817181828157
S113173093810C5F1F4F06C06081718180E090E04F
S11317400E5F1F4FA3010E94870C882E8618FB2D65
S1131750FF773F2E36FE0DC0232D2E7FA22E891437
S113176058F434FE0BC032FC09C0832D8E7EA82EA3
S113177005C0B82CA32C03C0B82C01C0B92CA4FEFE
S11317800FC0FE01E80DF11D8081803321F49A2DF4
S1131790997EA92E09C0A2FE06C0B394B39404C0D6
S11317A08A2D867809F0B394A3FC11C0A0FE06C06C
S11317B0B21488F4280C922C9B180EC0B21460F456
S11317C0B60180E290E00E944B0CB394F7CFB214C0
S11317D018F42B1802C0982C212CA4FE10C0B601BA
S11317E080E390E00E944B0CA2FE17C0A1FC03C052
S11317F088E790E002C088E590E0B6010CC08A2D2D
S1131800867859F0A1FE02C08BE201C080E2A7FCF9
S11318108DE2B60190E00E944B0C891438F4B601B5
S113182080E390E00E944B0C9A94F7CF8A94F301E2
S1131830E80DF11D8081B60190E00E944B0C8110EF
S1131840F5CF222009F442CEB60180E290E00E9456
S11318504B0C2A94F6CFF6018681978102C08FEF54
S11318609FEF2B96E2E10C942A0DFC010590615048
S113187070400110D8F7809590958E0F9F1F0895A2
S1131880FC016150704001900110D8F7809590954B
S11318908E0F9F1F08950F931F93CF93DF93FB0128
S11318A0238121FD03C08FEF9FEF2CC022FF16C0C0
S11318B046815781248135814217530744F4A0811E
S11318C0B1819D012F5F3F4F318320838C9326810B
S11318D037812F5F3F4F3783268314C08B01EC0180
S11318E0FB010084F185E02D0995892BE1F6D801EF
S11318F016968D919C911797019617969C938E93AB
S11319001697CE01DF91CF911F910F910895FA019F
S1131910AA27283051F1203181F1E8946F936E7F2A
S11319206E5F7F4F8F4F9F4FAF4FB1E03ED0B4E01B
S11319303CD0670F781F891F9A1FA11D680F791F5C
S11319408A1F911DA11D6A0F711D811D911DA11D6D
S113195020D009F468943F912AE0269F112430197D
S1131960305D3193DEF6CF010895462F4770405D18
S11319704193B3E00FD0C9F7F6CF462F4F70405DC7
S11319804A3318F0495D31FD4052419302D0A9F722
S1131990EACFB4E0A6959795879577956795BA951C
S11319A0C9F700976105710508959B01AC010A2EE2
S11319B006945795479537952795BA95C9F7620FB9
S11319C0731F841F951FA01D0895A8E1B0E042E095
S11319D050E00C94F20C0E94000D272F0C94010D82
S11319E0DC01CB01FC01F999FECF06C0F2BDE1BDDB
S11319F0F89A319600B40D9241505040B8F70895CA
S1131A00262FF999FECF1FBA92BD81BD20BD0FB616
S1131A10F894FA9AF99A0FBE019608952F923F927C
S1131A204F925F926F927F928F929F92AF92BF92EA
S1131A30CF92DF92EF92FF920F931F93CF93DF9396
S1131A40CDB7DEB7CA1BDB0B0FB6F894DEBF0FBEF3
S1131A50CDBF09942A88398848885F846E847D8440
S1131A608C849B84AA84B984C884DF80EE80FD8042
S1131A700C811B81AA81B981CE0FD11D0FB6F894B8
S1111A80DEBF0FBECDBFED010895F894FFCF79
S1131A8E20435441483A253364202020202020202E
S1131A9E0020452043543A25336420202025642E0B
S1131AAE25303164200020452043543A25336420E8
S10F1ABE205025642E25303164200000E7
S9030000FC
