S0180000506C61736D61436F6E74726F6C6C65722E737265638A
S11300000C944C000C94EE010C942F020C94690097
S11300100C9469000C9469000C9469000C946900B8
S11300200C9469000C9469000C9469000C941904F4
S11300300C9469000C9469000C94C9010C94690037
S11300400C9469000C9469000C9469000C94690088
S11300500C9469000C9469000C9469000C94690078
S11300600C9469000C946900060810101F1008070E
S11300700E1111111F191B1F1111111F0404040467
S11300800404040404150E04040E150404040404F6
S113009001060C180E03060811241FBECFEFD8E08A
S11300A0DEBFCDBF11E0A0E0B1E0E6E7F7E102C0BA
S11300B005900D92AC31B107D9F721E0ACE1B1E084
S11300C001C01D92A735B207E1F70E944D060C94BA
S11300D0B90B0C940000569857985E9A5F9A5498FE
S11300E055985C9A5D9A089529B126FB222720F938
S11300F04F99226080911C01982F9370291761F009
S113010034E0839FC0011124282B20931C01213E3D
S113011029F081E0223D19F080E008958FEF0895E1
S113012029B1229521704D99226080911D01982F4B
S11301309370291761F034E0839FC0011124282BA8
S113014020931D01213E29F081E0223D19F080E039
S113015008958FEF089594B1976094B997B19C6313
S113016097B92998662311F0289A01C028982A9AE9
S113017098B1937C98B983FD459A82FD449A81FD98
S1130180439A80FD429A8AE18A95F1F700C02A9841
S1130190089594B1976094B9299A882311F0289A04
S11301A001C028982A9A87B1837C87B988B18C6367
S11301B088B98AE18A95F1F700C02A98359902C076
S11301C080E001C088E03499846033998260329978
S11301D081600895CF93DF93C82F0E94C900D82F60
S11301E0D295D07F8C2F0E94C9008D2BDF91CF91A7
S11301F00895CF93DF93C82FD62F82958F700E94D6
S1130200AB006D2F8C2FDF91CF910C94AB0080E06D
S11302100E94EA00880F880B08950E94070181114B
S1130220FCCF60E082E00E94AB000E9407018111D4
S1130230FCCF60E088E20E94F9000E94070181116E
S1130240FCCF60E081E00E94F9000E940701811167
S1130250FCCF60E086E00E94F9000E940701811152
S1130260FCCF60E08CE00C94F9000E94070181113E
S1130270FCCF60E081E00C94F9001F93CF93DF93EF
S11302801F92CDB7DEB7182F69830E9407016981D9
S11302908111FACF862F90E4199F800D112460E01C
S11302A080680F90DF91CF911F910C94F900CF9348
S11302B0DF93EC0108C00E9407018111FCCF61E0CB
S11302C089910E94F90088818111F5CFDF91CF9146
S11302D008950F931F93CF93DF93182FEB010E9480
S11302E007018111FCCF28E0129FC001112460E0B6
S11302F080640E94F9008E01085F1F4F0E9407016D
S11303008111FCCFFE012196849161E00E94F900E5
S1130310C017D10799F70E9407018111FCCF60E053
S113032080E8DF91CF911F910F910C94F90082E046
S113033084BD93E095BD80936E008AEF87BD0895D8
S11303400F931F938FB7F89400911E0110911F0112
S113035020912001309121018FBFB801C9011F9163
S11303600F910895E4E6F0E080818F7D8083EEE6CE
S1130370F0E080818260808308958FB7F8941092B2
S11303801E0110921F0110922001109221018FBFB3
S113039008951F920F920FB60F9211248F939F937B
S11303A0AF93BF9380911E0190911F01A0912001F2
S11303B0B09121010196A11DB11D80931E0190935E
S11303C01F01A0932001B0932101BF91AF919F9190
S11303D08F910F900FBE0F901F9018951F920F9240
S11303E00FB60F9211242F933F934F935F936F9304
S11303F07F938F939F93AF93BF93EF93FF934A9B06
S113040007C01092260110922701109222010DC0FC
S113041080912901882391F081E0809326018093C3
S11304202701809322010E94BD01809133019091A4
S1130430340184609093340180933301FF91EF91F0
S1130440BF91AF919F918F917F916F915F914F91E8
S11304503F912F910F900FBE0F901F9018951F92F0
S11304600F920FB60F9211248F934B9B04C081E01F
S11304708093290102C0109229018F910F900FBE21
S11304800F901F90189580937C0045E34A95F1F7EF
S1130490000086EC80937A0080917A0086FDFCCF80
S11304A02091780030917900932F80E0AC01420FC5
S11304B0511DCA010895CF92DF92EF92FF920E94DC
S11304C00D012DE088E190E00FB6F894A895809393
S11304D060000FBE2093600080E090E00E94B90AA3
S11304E07C0190932E0180932D0183E090E00E9483
S11304F0B90ABC0180E090E00E945B0720E030E094
S113050040E251E40E94C20660932F0170933001CF
S1130510809331019093320185E5E81681E0F80675
S113052060F08CE890E090932E0180932D0168E7B1
S113053075E080E090E00E94BF0AC0902F01D09047
S11305403001E0903101F090320120E030E040EAE7
S113055050E4C701B6010E940D0818164CF020E0C3
S113056030E0A901C701B6010E94BE0687FF12C090
S113057080E090E0A0E8BFE380932F0190933001E6
S1130580A0933101B09332016AE070E083E090E01F
S11305900E94BF0A0E9497010E94B20180EA9FE074
S11305A09093890080938800809181008860809373
S11305B0810080916F00826080936F008091810040
S11305C0856080938100259A2D98249A2C9A239AE9
S11305D02B9A509A589A509A589A3998419A529804
S11305E05A9A53985B9A80916900807F809369003E
S11305F0809169008560809369008DB383608DBBB1
S11306000E946B0060E970E08AE00E94690168E87A
S113061070E08BE00E94690160E870E08CE00E9469
S1130620690168E770E08DE00E94690160E770E0AD
S11306308EE00E94690168E670E08FE00E94690123
S1130640109246011092450183E090E090933401AA
S1130650809333017894FF90EF90DF90CF900895CA
S1130660CF92DF92EF92FF920F931F93CF93DF937A
S11306708091330190913401892B09F4D1C0809188
S1130680450190914601892B09F0CAC00E943501A9
S113069080912C018F9380912B018F9380E091E0C6
S11306A09F938F93C5E3D1E0DF93CF930E94BB0860
S11306B0CE010E94570160E081E00E943D018091DB
S11306C02E018F9380912D018F9389E091E09F9368
S11306D08F93DF93CF930E94BB08CE010E945701F2
S11306E06BE080E00E943D01C0902F01D09030016A
S11306F0E0903101F0903201C701B6010E942A074F
S11307008B01882777FD8095982F0E945D079B01B8
S1130710AC01C701B6010E94590620E030E040E276
S113072051E40E9411080E9474080E942A077F93D2
S11307306F931F930F9382E191E09F938F93DF93C5
S1130740CF930E94BB08CE010E9457018DB79EB77C
S113075044960FB6F8949EBF0FBE8DBF80912A01B8
S113076081114DC080912501882361F069E080E00A
S11307700E943D018AE08093350110923601CE013A
S11307800E94570180912801882369F06CE081E080
S11307900E943D018DE0809335011092360185E37E
S11307A091E00E94570180912401882369F069E057
S11307B081E00E943D018BE0809335011092360167
S11307C085E391E00E94570180912301882369F019
S11307D069E081E00E943D018CE080933501109234
S11307E0360185E391E00E9457018091220188231C
S11307F099F069E081E00E943D018EE005C06CE063
S113080081E00E943D018FE0809335011092360112
S113081085E391E00E945701109234011092330154
S1130820DF91CF911F910F91FF90EF90DF90CF90C8
S113083008951F920F920FB60F9211242F933F9396
S11308404F935F936F937F938F939F93AF93BF93D4
S1130850EF93FF930E943003FF91EF91BF91AF910B
S11308609F918F917F916F915F914F913F912F91C4
S11308700F900FBE0F901F901895CF92DF92EF92BA
S1130880FF920E947400813051F460912D017091A7
S11308902E016115710501F1615071090CC08F3F82
S11308A0D9F460912D0170912E01643581E07807AF
S11308B098F46F5F7F4F70932E0160932D018091A8
S11308C0330190913401816090933401809333011A
S11308D080E090E00E94BF0A0E9490008130D9F429
S11308E0C0902F01D0903001E0903101F09032019E
S11308F020E030E0A901C701B6010E940D081816D6
S11309000CF04DC02DEC3CEC4CEC5DE3C701B601A2
S11309100E9459061DC08F3F09F041C0C0902F01AD
S1130920D0903001E0903101F090320120E030E0CD
S113093040EA50E4C701B6010E94BE0687FF2FC0FB
S11309402DEC3CEC4CEC5DE3C701B6010E945A0669
S1130950FB01462F5F2F682F792F40932F0150936F
S11309603001609331017093320120913301309151
S113097034012260309334012093330120E030E0CD
S113098040E251E4BF010E9411080E942F0783E056
S113099090E0FF90EF90DF90CF900C94BF0AFF900F
S11309A0EF90DF90CF900895CF92DF92EF92FF9275
S11309B090912A01809128019111D7C09091290129
S11309C0891749F0809133019091340188609093A4
S11309D0340180933301809129018093280180910F
S11309E02701811133C080912901882379F18091F5
S11309F02B0190912C01805591098B359105A8F418
S1130A0080912601811122C081E080932601809388
S1130A1022018091330190913401846090933401D8
S1130A20809333010E94BD0111C080912601882367
S1130A3069F0109226018091330190913401846011
S1130A40909334018093330110922201809122010A
S1130A50882351F10E94A0010E945B076B017C0175
S1130A6020E030E04AE754E460912F0170913001B6
S1130A7080913101909132010E9411089B01AC01D7
S1130A80C701B6010E940D08181674F48091330151
S1130A9090913401846090933401809333011092D7
S1130AA0220181E08093250180912601882321F091
S1130AB080912801811102C01092250180912501A5
S1130AC08823E9F120912B0130912C0180912D0193
S1130AD090912E0182179307B0F4409124014111A3
S1130AE004C040912301411109C040913301509148
S1130AF03401406450933401409333011092240133
S1130B0041E04093230128173907B0F440912401B0
S1130B10442321F040912301442349F040913301BF
S1130B20509134014064509334014093330141E0C7
S1130B30409324011092230128173907A9F58091C5
S1130B402401811104C080912301882349F08091FC
S1130B503301909134018064909334018093330184
S1130B6010922401109223011FC081110CC08091A6
S1130B702401811108C080912301811104C0809156
S1130B802501882349F080913301909134018062DA
S1130B909093340180933301109228011092240120
S1130BA01092230110922501FF90EF90DF90CF90D7
S1130BB0089580912801882311F02D9A01C02D9861
S1130BC080912501811102C02C9801C02C9A80913A
S1130BD02A01811102C02B9801C02B9A8091240113
S1130BE0811102C0589801C0589A80912301811143
S1130BF002C059980895599A089580E490E00E949B
S1130C004302BC01882777FD8095982F0E945D07D9
S1130C1020E030EC4FE754E40E94C20620E030E0CC
S1130C2045EA53E40E9411080E942F0720912B01EA
S1130C3030912C01261B370B2330310568F070935B
S1130C402C0160932B0180913301909134018061D8
S1130C50909334018093330180912A01319B0EC01B
S1130C60882349F0809133019091340180629093FC
S1130C7034018093330110922A010895811109C02F
S1130C808091330190913401806290933401809378
S1130C90330181E080932A0108950E945B02A895A4
S1130CA00E943D040E94FD050E94D4040E94D905BF
S1130CB0F6CF5058BB27AA270ED075C166D130F0A5
S1130CC06BD120F031F49F3F11F41EF45BC10EF49C
S1130CD0E095E7FB51C1E92F77D180F3BA1762079A
S1130CE073078407950718F071F49EF58FC10EF40D
S1130CF0E0950B2EBA2FA02D0B01B90190010C0128
S1130D00CA01A0011124FF27591B99F0593F50F43F
S1130D10503E68F11A16F040A22F232F342F442797
S1130D20585FF3CF469537952795A795F04053958F
S1130D30C9F77EF41F16BA0B620B730B840BBAF05F
S1130D409150A1F0FF0FBB1F661F771F881FC2F7CA
S1130D500EC0BA0F621F731F841F48F487957795DE
S1130D606795B795F7959E3F08F0B3CF9395880F95
S1130D7008F09927EE0F979587950895D9D008F430
S1130D8081E008950CD00FC107D140F0FED030F0BF
S1130D9021F45F3F19F0F0C0511139C1F3C014D1EF
S1130DA098F39923C9F35523B1F3951B550BBB272E
S1130DB0AA2762177307840738F09F5F5F4F220FDB
S1130DC0331F441FAA1FA9F333D00E2E3AF0E0E8D4
S1130DD030D091505040E695001CCAF729D0FE2F20
S1130DE027D0660F771F881FBB1F261737074807B2
S1130DF0AB07B0E809F0BB0B802DBF01FF27935868
S1130E005F4F2AF09E3F510568F0B6C000C15F3FB6
S1130E10ECF3983EDCF3869577956795B795F7954F
S1130E209F5FC9F7880F911D9695879597F9089547
S1130E30E1E0660F771F881FBB1F621773078407E3
S1130E40BA0720F0621B730B840BBA0BEE1F88F7F2
S1130E50E095089504D06894B111D9C00895BCD028
S1130E6088F09F5790F0B92F9927B751A0F0D1F08F
S1130E70660F771F881F991F1AF0BA95C9F712C019
S1130E80B13081F0C3D0B1E00895C0C0672F782F8E
S1130E908827B85F39F0B93FCCF386957795679585
S1130EA0B395D9F73EF490958095709561957F4FF1
S1130EB08F4F9F4F0895E89409C097FB3EF4909597
S1130EC08095709561957F4F8F4F9F4F9923A9F01F
S1130ED0F92F96E9BB279395F695879577956795AE
S1130EE0B795F111F8CFFAF4BB0F11F460FF1BC0F2
S1130EF06F5F7F4F8F4F9F4F16C0882311F096E985
S1130F0011C0772321F09EE8872F762F05C0662332
S1130F1071F096E8862F70E060E02AF09A95660FEB
S1130F20771F881FDAF7880F9695879597F90895A4
S1130F30990F0008550FAA0BE0E8FEEF16161706E6
S1130F40E807F907C0F012161306E407F50798F04E
S1130F50621B730B840B950B39F40A2661F0232B67
S1130F60242B252B21F408950A2609F4A140A695E3
S1130F708FEF811D811D089597F99F6780E870E0C8
S1130F8060E008959FEF80EC089500240A941616FB
S1130F90170618060906089500240A941216130663
S1130FA0140605060895092E0394000C11F48823F1
S1130FB052F0BB0F40F4BF2B11F460FF04C06F5F0D
S1130FC07F4F8F4F9F4F089557FD9058440F551FE3
S1130FD059F05F3F71F04795880F97FB991F61F0B7
S1130FE09F3F79F087950895121613061406551F2E
S1130FF0F2CF4695F1DF08C0161617061806991F9A
S1131000F1CF86957105610508940895E894BB278E
S113101066277727CB0197F908958ADF08F48FEFC5
S113102008950BD0C0CFB1DF28F0B6DF18F09523B8
S113103009F0A2CFA7CF1124EACFC6DFA0F3959F72
S1131040D1F3950F50E0551F629FF001729FBB27AB
S1131050F00DB11D639FAA27F00DB11DAA1F649F57
S11310606627B00DA11D661F829F2227B00DA11D0A
S1131070621F739FB00DA11D621F839FA00D611D90
S1131080221F749F3327A00D611D231F849F600DB1
S1131090211D822F762F6A2F11249F5750408AF0EA
S11310A0E1F088234AF0EE0FFF1FBB1F661F771F76
S11310B0881F91505040A9F79E3F510570F05CCFB6
S11310C0A6CF5F3FECF3983EDCF386957795679562
S11310D0B795F795E7959F5FC1F7FE2B880F911D94
S11310E09695879597F908952FD020F09F3708F4A7
S11310F08ECF01C01BC0882371F4772321F0985050
S1131100872B762F07C0662311F499270DC09051C1
S1131110862B70E060E02AF09A95660F771F881F8F
S1131120DAF7880F9695879597F908959F3F31F0E0
S1131130915020F4879577956795B795880F911D01
S11311409695879597F9089547DFA0F0BEE7B917FC
S113115088F4BB279F3860F41616B11D672F782FCB
S11311608827985FF7CF869577956795B11D9395F6
S11311709639C8F30895AEE0B0E0E1ECF8E00C94E1
S1131180900B0D891E8986E08C831A8309838FEF67
S11311909FE79E838D83CE014996AC016F89788D3C
S11311A0CE0101960E94DD08EF81F885E00FF11F62
S11311B010822E96E4E00C94AC0BACE0B0E0E3EECD
S11311C0F8E00C94820B7C016B018A01FC0117820C
S11311D01682838181FFC6C188248394912C8C0E4E
S11311E09D1EF7019381F60193FD859193FF8191F3
S11311F06F01882309F4B2C1853239F493FD8591D6
S113120093FF81916F01853229F4B70190E00E9428
S1131210DA0AE7CF512C312C20E02032A8F48B32AB
S113122061F028F4803251F0833271F40BC08D32B6
S113123039F0803349F4216028C02260246025C03D
S1131240286023C0206121C027FD27C0382F3053D8
S11312503A3078F426FF06C0FAE05F9E300D112480
S1131260532E13C08AE0389E300D1124332E206291
S11312700CC08E3221F426FD71C1206406C08C3668
S113128011F4206802C0883641F4F60193FD85917B
S113129093FF81916F018111C0CF982F95549330A2
S11312A018F09052933028F40C5F1F4FFFE3F9833A
S11312B00DC0833631F0833771F0833509F05EC099
S11312C023C0F801808189830E5F1F4F4424439417
S11312D0512C540115C03801F2E06F0E711CF80155
S11312E0A080B18026FF03C0652D70E002C06FEFBF
S11312F07FEFC5012C870E94CF0A2C0183012C8526
S11313006FE7262E222218C03801F2E06F0E711CFE
S1131310F801A080B18026FF03C0652D70E002C0F3
S11313206FEF7FEFC5012C870E94C40A2C012C8526
S113133050E8252E222A830123FC1CC006C0B701D5
S113134080E290E00E94DA0A3A94832D90E04816F5
S11313505906A8F30FC0F50127FC859127FE81915A
S11313605F01B70190E00E94DA0A31103A94F1E08B
S11313704F1A51084114510471F7EDC0843611F02D
S1131380893641F5F80127FF07C0608171818281A8
S113139093810C5F1F4F08C060817181882777FD9E
S11313A08095982F0E5F1F4F4FE6B42EB22297FF01
S11313B009C090958095709561957F4F8F4F9F4F91
S11313C0F0E8BF2A2AE030E0A4010E94060BA82E10
S11313D0A81843C0853731F43FEEB32EB2222AE079
S11313E030E024C099EFB92EB2228F36B9F020F440
S11313F0883509F0B3C00DC0803721F0883709F073
S1131400ADC002C020E1B22AB4FE0BC084E0B82A09
S113141008C024FF09C0E6E0BE2A06C028E030E088
S113142005C020E130E002C020E132E0F801B7FE5F
S113143007C060817181828193810C5F1F4F06C058
S11314406081718180E090E00E5F1F4FA4010E94D3
S1131450060BA82EA818FFE7BF22B6FE0BC02B2D43
S11314602E7FA51450F4B4FE0AC0B2FC08C02B2D84
S11314702E7E05C07A2C2B2D03C07A2C01C0752C2E
S113148024FF0DC0FE01EA0DF11D8081803311F4AB
S1131490297E09C022FF06C07394739404C0822F6E
S11314A0867809F0739423FD14C020FF0FC05A2CD2
S11314B0731460F4530C5718732C08C0B70180E2FE
S11314C090E02C870E94DA0A73942C857314B0F38D
S11314D004C0731410F4371801C0312C24FF12C057
S11314E0B70180E390E02C870E94DA0A2C8522FF62
S11314F01EC021FF03C088E590E002C088E790E0A9
S1131500B7010CC0822F867891F021FD02C080E2E1
S113151001C08BE227FD8DE2B70190E00E94DA0A58
S113152006C0B70180E390E00E94DA0A5A94A51439
S1131530C0F3AA94F401EA0DF11DB701808190E093
S11315400E94DA0AA110F5CF06C0B70180E290E04C
S11315500E94DA0A3A943110F8CF43CEF70126817B
S1131560378102C02FEF3FEFC9012C96E2E10C94C2
S11315709E0BA8E1B0E042E050E00C94660B0E94A0
S1131580740B272F0C94750BFC010590615070406F
S11315900110D8F7809590958E0F9F1F0895FC0138
S11315A06150704001900110D8F7809590958E0F8E
S11315B09F1F08950F931F93CF93DF938C01EB012B
S11315C08B8181FD03C00FEF1FEF1AC082FF0DC096
S11315D02E813F818C819D812817390764F4E8812D
S11315E0F9810193F983E88306C0E885F985802FA2
S11315F00995892B41F78E819F8101969F838E8364
S1131600C801DF91CF911F910F910895FA01AA2784
S1131610283051F1203181F1E8946F936E7F6E5F31
S11316207F4F8F4F9F4FAF4FB1E03ED0B4E03CD0DF
S1131630670F781F891F9A1FA11D680F791F8A1FC2
S1131640911DA11D6A0F711D811D911DA11D20D029
S113165009F468943F912AE0269F11243019305DE3
S11316603193DEF6CF010895462F4770405D4193D4
S1131670B3E00FD0C9F7F6CF462F4F70405D4A3321
S113168018F0495D31FD4052419302D0A9F7EACFE9
S1131690B4E0A6959795879577956795BA95C9F718
S11316A000976105710508959B01AC010A2E06940B
S11316B05795479537952795BA95C9F7620F731FC4
S11316C0841F951FA01D0895DC01CB01FC01F9992D
S11316D0FECF06C0F2BDE1BDF89A319600B40D927A
S11316E041505040B8F70895262FF999FECF1FBAFC
S11316F092BD81BD20BD0FB6F894FA9AF99A0FBE37
S1131700019608952F923F924F925F926F927F922B
S11317108F929F92AF92BF92CF92DF92EF92FF92FD
S11317200F931F93CF93DF93CDB7DEB7CA1BDB0BA9
S11317300FB6F894DEBF0FBECDBF09942A8839884E
S113174048885F846E847D848C849B84AA84B98455
S1131750C884DF80EE80FD800C811B81AA81B98161
S1131760CE0FD11D0FB6F894DEBF0FBECDBFED0175
S10917700895F894FFCF78
S11317765265616C3A256400005365743A20256409
S10F1786000025642E25303164000000B2
S9030000FC
