:100000000C944C000C94EB010C942C020C946900A1
:100010000C9469000C9469000C9469000C946900BC
:100020000C9469000C9469000C9469000C944503CD
:100030000C9469000C9469000C94C6010C9469003E
:100040000C9469000C9469000C9469000C9469008C
:100050000C9469000C9469000C9469000C9469007C
:100060000C9469000C946900060810101F10080712
:100070000E1111111F191B1F1111111F040404046B
:100080000404040404150E04040E150404040404FA
:1000900001060C180E03060811241FBECFEFD8E08E
:1000A000DEBFCDBF11E0A0E0B1E0E4E4F8E102C0C2
:1000B00005900D92AC31B107D9F721E0ACE1B1E088
:1000C00001C01D92A735B207E1F70E9477060C9494
:1000D000200C0C940000569857985E9A5F9A54989A
:1000E00055985C9A5D9A089599B196FB332730F93B
:1000F0004F99326020911D01822F8370381769F06B
:1001000044E0249FC0011124932F982B90931D014C
:10011000913E29F081E0923D19F080E008958FEF43
:10012000089599B194FB332730F94D9932602091AD
:100130001C01822F8370381769F044E0249FC001AE
:100140001124932F982B90931C01913E29F081E06C
:10015000923D19F080E008958FEF089594B1976073
:1001600094B997B19C6397B92998662311F0289A9E
:1001700001C028982A9A98B1937C98B983FD459A32
:1001800082FD449A81FD439A80FD429A8AE18A95D4
:10019000F1F700C02A98089594B1976094B9299A0C
:1001A000882311F0289A01C028982A9A87B1837C65
:1001B00087B988B18C6388B98AE18A95F1F700C064
:1001C0002A98359B02C088E001C080E034998460A1
:1001D00033998260329981600895CF93DF93C82F5D
:1001E0000E94CC00D82FD295D07F8C2F0E94CC00BB
:1001F0008D2BDF91CF910895CF93DF93C82FD62F0A
:1002000082958F700E94AE006D2F8C2FDF91CF9161
:100210000C94AE0080E00E94ED00880F880B0895DA
:100220000E940A018111FCCF60E082E00E94AE00D2
:100230000E940A018111FCCF60E088E20E94FC006C
:100240000E940A018111FCCF60E081E00E94FC0065
:100250000E940A018111FCCF60E086E00E94FC0050
:100260000E940A018111FCCF60E08CE00C94FC003C
:100270000E940A018111FCCF60E081E00C94FC0037
:10028000CF93DF93D82FC62F0E940A018111FCCF94
:100290008C2F90E4D99F800D112460E08068DF915D
:1002A000CF910C94FC000F931F93CF93DF93EC013D
:1002B0008E018881882359F00E940A018111FCCFA8
:1002C000219661E0F80180810E94FC00F1CFDF916E
:1002D000CF911F910F9108950F931F93CF93DF93A9
:1002E000182FEB010E940A018111FCCF28E0129F18
:1002F000C001112460E080640E94FC008E01085F50
:100300001F4F0E940A018111FCCFFE01849161E020
:100310000E94FC0021960C171D0799F70E940A0104
:100320008111FCCF60E080E8DF91CF911F910F91A8
:100330000C94FC0082E084BD93E095BD80936E0038
:100340008AEF87BD08952FB7F89460911E017091D0
:100350001F0180912001909121012FBF0895E4E6B3
:10036000F0E080818F7D8083EEE6F0E08081826026
:10037000808308958FB7F89410921E0110921F0188
:1003800010922001109221018FBF08951F920F92A9
:100390000FB60F9211248F939F93AF93BF938091C9
:1003A0001E0190911F01A0912001B09121010196A1
:1003B000A11DB11D80931E0190931F01A0932001E8
:1003C000B0932101BF91AF919F918F910F900FBE7C
:1003D0000F901F9018951F920F920FB60F92112435
:1003E0002F933F934F935F936F937F938F939F933D
:1003F000AF93BF93EF93FF934A9B07C010922601E0
:1004000010922701109222010DC0809129018823AA
:1004100091F081E08093260180932701809322014F
:100420000E94BA01809133019091340184609093CD
:10043000340180933301FF91EF91BF91AF919F9170
:100440008F917F916F915F914F913F912F910F907D
:100450000FBE0F901F9018951F920F920FB60F921C
:1004600011248F934B9B04C081E08093290102C02B
:10047000109229018F910F900FBE0F901F90189529
:1004800080937C0085E38A95F1F7000086EC8093E9
:100490007A0080917A0086FDFCCF209178008091CF
:1004A000790090E0982F8827820F911D08958F92F0
:1004B0009F92AF92BF92CF92DF92EF92FF92CF9333
:1004C000DF938091330190913401892B09F4D2C0DC
:1004D0008091450190914601892B09F0CBC00E9483
:1004E000380180912C018F9380912B018F9380E0B4
:1004F00091E09F938F93C5E3D1E0DF93CF930E9468
:100500000D09CE010E94530160E081E00E9440018C
:1005100080912E018F9380912D018F9389E091E03E
:100520009F938F93DF93CF930E940D09CE010E947A
:1005300053016BE080E00E94400180902F01909079
:100540003001A0903101B0903201C501B4010E9488
:1005500067076B017C01072E000C880B990B0E942A
:100560009F079B01AC01C501B4010E94830620E0F6
:1005700030E040E251E40E9454080E94C1080E9409
:1005800067077F936F93DF92CF9282E191E09F9311
:100590008F93DF93CF930E940D09CE010E945301E8
:1005A0008DB79EB744960FB6F8949EBF0FBE8DBF11
:1005B00080912A0181114DC080912501882361F02D
:1005C00069E080E00E9440018AE08093350110924A
:1005D0003601CE010E94530180912801882369F0E1
:1005E0006CE081E00E9440018DE080933501109223
:1005F000360185E391E00E94530180912401882314
:1006000069F069E081E00E9440018BE08093350150
:100610001092360185E391E00E94530180912301FD
:10062000882369F069E081E00E9440018CE08093BA
:1006300035011092360185E391E00E9453018091CB
:100640002201882399F069E081E00E9440018EE058
:1006500005C06CE081E00E9440018FE0809335018D
:100660001092360185E391E00E945301109234010B
:1006700010923301DF91CF91FF90EF90DF90CF90F8
:10068000BF90AF909F908F9008951F920F920FB6DA
:100690000F9211242F933F934F935F936F937F9308
:1006A0008F939F93AF93BF93EF93FF930E94570253
:1006B000FF91EF91BF91AF919F918F917F916F913A
:1006C0005F914F913F912F910F900FBE0F901F9010
:1006D0001895CF92DF92EF92FF920E9410019DE059
:1006E00088E10FB6F894A895809360000FBE9093B0
:1006F000600080E090E00E94C00B7C0190932E018E
:1007000080932D0183E090E00E94C00BBC0180E04B
:1007100090E00E949D0720E030E040E251E40E941A
:10072000F50660932F01709330018093310190930F
:10073000320185E5E81681E0F80660F08CE890E08B
:1007400090932E0180932D0168E775E080E090E0A2
:100750000E94C60BC0902F01D0903001E090310173
:10076000F090320120E030E040EA50E4C701B601E9
:100770000E944F0818164CF020E030E0A901C70194
:10078000B6010E94F00687FF12C080E090E0A0E86A
:10079000BFE380932F0190933001A0933101B09378
:1007A00032016AE070E083E090E00E94C60B0E9494
:1007B0009A010E94AF0180EA9FE0909389008093A4
:1007C00088008091810088608093810080916F0013
:1007D000826080936F0080918100856080938100AA
:1007E000259A2D98249A2C9A509A589A519A599A47
:1007F000239A2B9A3998419A52985A9A53985B9A0D
:1008000080916900807F8093690080916900856094
:10081000809369008DB383608DBB0E946B0060E99B
:1008200070E08AE00E946C0168E870E08BE00E9452
:100830006C0160E870E08CE00E946C0168E770E099
:100840008DE00E946C0160E770E08EE00E946C0118
:1008500068E670E08FE00E946C01109246011092F1
:10086000450183E090E090933401809333017894C4
:10087000FF90EF90DF90CF900895CF92DF92EF92AC
:10088000FF920E947400813051F460912D017091AB
:100890002E016115710501F1615071090CC08F3F86
:1008A000D9F460912D0170912E01643581E07807B3
:1008B00098F46F5F7F4F70932E0160932D018091AC
:1008C000330190913401816090933401809333011E
:1008D00080E090E00E94C60B0E9491008130D9F424
:1008E000C0902F01D0903001E0903101F0903201A2
:1008F00020E030E0A901C701B6010E944F08181698
:100900000CF046C02DEC3CEC4CEC5DE3C701B601AD
:100910000E9483061CC08F3FD9F5C0902F01D09054
:100920003001E0903101F090320120E030E040EA07
:1009300050E4C701B6010E94F00687FF29C02DECE4
:100940003CEC4CEC5DE3C701B6010E948406609369
:100950002F017093300180933101909332012091E7
:1009600033013091340122603093340120933301FC
:1009700020E030E040E251E40E9454080E946E07FB
:1009800083E090E0FF90EF90DF90CF900C94C60B47
:10099000FF90EF90DF90CF900895CF92DF92EF928B
:1009A000FF9290912A01809128019111E3C09091CA
:1009B0002901891749F080913301909134018860B1
:1009C0009093340180933301809129018093280111
:1009D00080912701811133C080912901882379F109
:1009E00080912B0190912C01805591098B359105B7
:1009F000A8F480912601811122C081E08093260114
:100A0000809322018091330190913401846090930E
:100A10003401809333010E94BA0111C080912601F4
:100A2000882369F01092260180913301909134015E
:100A3000846090933401809333011092220180915D
:100A40002201882351F10E94A3010E949D076B019E
:100A50007C0120E030E04AE754E460912F0170917E
:100A6000300180913101909132010E9454089B0124
:100A7000AC01C701B6010E944F08181674F48091AA
:100A80003301909134018460909334018093330159
:100A90001092220181E08093250180912601882314
:100AA00021F080912801811102C0109225018091CE
:100AB0002501882309F447C020912D0130912E0192
:100AC00080912B0190912C01A9014B5F5F4F48173A
:100AD0005907B0F440912401411104C04091230111
:100AE000411109C040913301509134014064509349
:100AF0003401409333011092240141E040932301DB
:100B0000A9014550510984179507D0F4409124015B
:100B1000442321F040912301442349F040913301C3
:100B2000509134014064509334014093330141E0CB
:100B3000409324011092230128173907D1F510C0E2
:100B400028173907B1F580912401811109C08091DE
:100B50002301811105C0109224011092230129C0A4
:100B6000809133019091340180649093340180939B
:100B70003301F1CF81110CC080912401811108C093
:100B800080912301811104C080912501882349F0BF
:100B9000809133019091340180629093340180936D
:100BA0003301109228011092240110922301109217
:100BB0002501FF90EF90DF90CF900895809128015C
:100BC000882311F02D9A01C02D9880912501811163
:100BD00002C02C9801C02C9A80912A01811102C078
:100BE000589801C0589A80912401811102C05998E7
:100BF00001C0599A80912301811102C02B98089558
:100C00002B9A089580E490E00E9440029C01BC0170
:100C100080E090E0233941E0340778F40E949D079A
:100C200028ED3EE949E85FE30E9454089B01AC01CE
:100C300063E373E588E294E420C02E33334078F414
:100C40000E949D0720E733E44CEA5EE30E945408CB
:100C50009B01AC0160EA7AEC8BEB93E40EC00E943E
:100C60009D0724E931E346EC5EE30E9454089B01B2
:100C7000AC016DEC7CEC82ED93E40E9483060E9453
:100C80006E0780912B0190912C01861B970B039787
:100C900068F070932C0160932B0180913301909147
:100CA00034018061909334018093330180912A0153
:100CB000319B0EC0882349F080913301909134011B
:100CC0008062909334018093330110922A01089539
:100CD000811109C080913301909134018062909319
:100CE00034018093330181E080932A0108950E94AA
:100CF0006903A8950E943D040E9402060E94CD044B
:100D00000E94DE05F6CF5058BB27AA270E949B06FB
:100D10000C9415080E94070838F00E940E0820F075
:100D200039F49F3F19F426F40C9404080EF4E0956E
:100D3000E7FB0C94FE07E92F0E94260858F3BA1728
:100D4000620773078407950720F079F4A6F50C94E1
:100D500048080EF4E0950B2EBA2FA02D0B01B90117
:100D600090010C01CA01A0011124FF27591B99F021
:100D7000593F50F4503E68F11A16F040A22F232F2D
:100D8000342F4427585FF3CF469537952795A7957D
:100D9000F0405395C9F77EF41F16BA0B620B730B24
:100DA000840BBAF09150A1F0FF0FBB1F661F771F95
:100DB000881FC2F70EC0BA0F621F731F841F48F44A
:100DC000879577956795B795F7959E3F08F0B0CFD3
:100DD0009395880F08F09927EE0F979587950895BA
:100DE0000E94DA0708F481E008950E9409070C9434
:100DF00015080E940E0858F00E94070840F029F4D8
:100E00005F3F29F00C94FE0751110C9449080C9493
:100E100004080E94260868F39923B1F3552391F33F
:100E2000951B550BBB27AA2762177307840738F059
:100E30009F5F5F4F220F331F441FAA1FA9F335D0B6
:100E40000E2E3AF0E0E832D091505040E695001C6A
:100E5000CAF72BD0FE2F29D0660F771F881FBB1F24
:100E6000261737074807AB07B0E809F0BB0B802D02
:100E7000BF01FF2793585F4F3AF09E3F510578F02E
:100E80000C94FE070C9449085F3FE4F3983ED4F3BA
:100E9000869577956795B795F7959F5FC9F7880F02
:100EA000911D9695879597F90895E1E0660F771F54
:100EB000881FBB1F621773078407BA0720F0621BE5
:100EC000730B840BBA0BEE1F88F7E09508950E9410
:100ED0006E076894B1110C94490808950E942E0879
:100EE00088F09F5798F0B92F9927B751B0F0E1F0EB
:100EF000660F771F881F991F1AF0BA95C9F714C09B
:100F0000B13091F00E944808B1E008950C9448086F
:100F1000672F782F8827B85F39F0B93FCCF38695D3
:100F200077956795B395D9F73EF490958095709530
:100F300061957F4F8F4F9F4F0895E89409C097FBAD
:100F40003EF490958095709561957F4F8F4F9F4FA0
:100F50009923A9F0F92F96E9BB279395F6958795E4
:100F600077956795B795F111F8CFFAF4BB0F11F4A7
:100F700060FF1BC06F5F7F4F8F4F9F4F16C088234E
:100F800011F096E911C0772321F09EE8872F762F84
:100F900005C0662371F096E8862F70E060E02AF0C5
:100FA0009A95660F771F881FDAF7880F96958795B1
:100FB00097F90895990F0008550FAA0BE0E8FEEF86
:100FC00016161706E807F907C0F012161306E4070D
:100FD000F50798F0621B730B840B950B39F40A2606
:100FE00061F0232B242B252B21F408950A2609F4E4
:100FF000A140A6958FEF811D811D089597F99F67E8
:1010000080E870E060E008959FEF80EC0895002490
:101010000A941616170618060906089500240A945D
:1010200012161306140605060895092E0394000CE3
:1010300011F4882352F0BB0F40F4BF2B11F460FF72
:1010400004C06F5F7F4F8F4F9F4F089557FD90589B
:10105000440F551F59F05F3F71F04795880F97FB7C
:10106000991F61F09F3F79F0879508951216130636
:101070001406551FF2CF4695F1DF08C01616170665
:101080001806991FF1CF869571056105089408959A
:10109000E894BB2766277727CB0197F908950E942C
:1010A000DA0708F48FEF08950E9467080C9415087A
:1010B0000E94070838F00E940E0820F0952311F0D6
:1010C0000C94FE070C94040811240C9449080E9407
:1010D000260870F3959FC1F3950F50E0551F629F4E
:1010E000F001729FBB27F00DB11D639FAA27F00D81
:1010F000B11DAA1F649F6627B00DA11D661F829FA8
:101100002227B00DA11D621F739FB00DA11D621F8C
:10111000839FA00D611D221F749F3327A00D611DA9
:10112000231F849F600D211D822F762F6A2F11248B
:101130009F5750409AF0F1F088234AF0EE0FFF1FBE
:10114000BB1F661F771F881F91505040A9F79E3F15
:10115000510580F00C94FE070C9449085F3FE4F3BE
:10116000983ED4F3869577956795B795F795E7956B
:101170009F5FC1F7FE2B880F911D9695879597F974
:1011800008950E94F50830F09F3710F40C94490838
:101190000C94CC080C94E708882371F4772321F091
:1011A0009850872B762F07C0662311F499270DC01E
:1011B0009051862B70E060E02AF09A95660F771FB9
:1011C000881FDAF7880F9695879597F908959F3FBE
:1011D00031F0915020F4879577956795B795880FF2
:1011E000911D9695879597F908950E942E08A0F075
:1011F000BEE7B91788F4BB279F3860F41616B11DF7
:10120000672F782F8827985FF7CF86957795679512
:10121000B11D93959639C8F30895AEE0B0E0E3E1CF
:10122000F9E00C94F70B0D891E8986E08C831A83F4
:1012300009838FEF9FE79E838D83AE01475E5F4FEB
:101240006F89788DCE0101960E942F09EF81F88574
:10125000E00FF11F10822E96E4E00C94130CABE02B
:10126000B0E0E5E3F9E00C94E90B6C017B018A0145
:10127000FC0117821682838181FFCCC1CE010196C9
:101280003C01F6019381F70193FD859193FF8191D4
:101290007F01882309F4BAC1853239F493FD859121
:1012A00093FF81917F01853229F4B60190E00E947D
:1012B000260BE7CF912C212C312CFFE1F315D8F030
:1012C0008B3279F038F4803279F08332A1F4232D17
:1012D00020611DC08D3261F0803369F4232D2160BF
:1012E00016C0832D8260382EE32DE4603E2E2AC086
:1012F000F32DF8601DC037FC2DC020ED280F2A30DB
:1013000040F08E32B9F436FC81C1232D2064322E98
:1013100019C036FE06C08AE0989E200D1124922E38
:1013200011C0EAE02E9E200D1124222EF32DF06232
:101330003F2E08C08C3621F4832D8068382E02C0E1
:10134000883641F4F70193FD859193FF81917F01E8
:101350008111B3CF982F9F7D9554933028F40C5F63
:101360001F4F9FE399830DC0833631F0833771F0AF
:10137000833509F059C021C0F801808189830E5F4F
:101380001F4F88248394912C530113C02801F2E04D
:101390004F0E511CF801A080B18036FE03C0692DAC
:1013A00070E002C06FEF7FEFC5010E941B0B4C0184
:1013B0008201F32DFF773F2E16C0280122E0420E56
:1013C000511CF801A080B18036FE03C0692D70E089
:1013D00002C06FEF7FEFC5010E94100B4C01F32D8F
:1013E000F0683F2E820133FC1BC0822D90E08816EE
:1013F0009906B0F4B60180E290E00E94260B2A9490
:10140000F4CFF50137FC859137FE81915F01B6017C
:1014100090E00E94260B21102A9421E0821A910864
:101420008114910471F7E8C0843611F0893641F5D2
:10143000F80137FE07C060817181828193810C5F62
:101440001F4F08C060817181072E000C880B990B1B
:101450000E5F1F4FF32DFF763F2E97FF09C090952B
:101460008095709561957F4F8F4F9F4FF0683F2E0D
:101470002AE030E0A3010E94620B882E861845C046
:10148000853731F4232D2F7EB22E2AE030E025C09F
:10149000932D997FB92E8F36C1F018F4883579F0E5
:1014A000B5C0803719F0883721F0B0C0E92FE0616E
:1014B000BE2EB4FE0DC0FB2DF460BF2E09C034FE5D
:1014C0000AC0292F2660B22E06C028E030E005C0F1
:1014D00020E130E002C020E132E0F801B7FE07C0B1
:1014E00060817181828193810C5F1F4F06C0608192
:1014F000718180E090E00E5F1F4FA3010E94620B9C
:10150000882E8618FB2DFF773F2E36FE0DC0232D2B
:101510002E7FA22E891458F434FE0BC032FC09C071
:10152000832D8E7EA82E05C0B82CA32C03C0B82C0A
:1015300001C0B92CA4FE0FC0FE01E80DF11D808191
:10154000803321F49A2D997EA92E09C0A2FE06C0EF
:10155000B394B39404C08A2D867809F0B394A3FCA5
:1015600011C0A0FE06C0B21488F4280C922C9B185F
:101570000EC0B21460F4B60180E290E00E94260B27
:10158000B394F7CFB21418F42B1802C0982C212C66
:10159000A4FE10C0B60180E390E00E94260BA2FEDC
:1015A00017C0A1FC03C088E790E002C088E590E086
:1015B000B6010CC08A2D867859F0A1FE02C08BE2DC
:1015C00001C080E2A7FC8DE2B60190E00E94260BEC
:1015D000891438F4B60180E390E00E94260B9A94B7
:1015E000F7CF8A94F301E80DF11D8081B60190E0F8
:1015F0000E94260B8110F5CF222009F442CEB601BD
:1016000080E290E00E94260B2A94F6CFF6018681B4
:10161000978102C08FEF9FEF2B96E2E10C94050CAF
:10162000FC010590615070400110D8F780959095AD
:101630008E0F9F1F0895FC016150704001900110B2
:10164000D8F7809590958E0F9F1F08950F931F9345
:10165000CF93DF93FB01238121FD03C08FEF9FEF29
:101660002CC022FF16C04681578124813581421744
:10167000530744F4A081B1819D012F5F3F4F318317
:1016800020838C93268137812F5F3F4F37832683BA
:1016900014C08B01EC01FB010084F185E02D09955C
:1016A000892BE1F6D80116968D919C91179701969A
:1016B00017969C938E931697CE01DF91CF911F9131
:1016C0000F910895FA01AA27283051F1203181F1B4
:1016D000E8946F936E7F6E5F7F4F8F4F9F4FAF4F3A
:1016E000B1E03ED0B4E03CD0670F781F891F9A1F4D
:1016F000A11D680F791F8A1F911DA11D6A0F711D01
:10170000811D911DA11D20D009F468943F912AE00C
:10171000269F11243019305D3193DEF6CF010895F4
:10172000462F4770405D4193B3E00FD0C9F7F6CF25
:10173000462F4F70405D4A3318F0495D31FD4052ED
:10174000419302D0A9F7EACFB4E0A6959795879583
:1017500077956795BA95C9F7009761057105089562
:101760009B01AC010A2E069457954795379527950E
:10177000BA95C9F7620F731F841F951FA01D0895A6
:10178000A8E1B0E042E050E00C94CD0B0E94DB0BEE
:10179000272F0C94DC0BDC01CB01FC01F999FECF67
:1017A00006C0F2BDE1BDF89A319600B40D924150E9
:1017B0005040B8F70895262FF999FECF1FBA92BD71
:1017C00081BD20BD0FB6F894FA9AF99A0FBE019622
:1017D00008952F923F924F925F926F927F928F92D5
:1017E0009F92AF92BF92CF92DF92EF92FF920F93B0
:1017F0001F93CF93DF93CDB7DEB7CA1BDB0B0FB6BA
:10180000F894DEBF0FBECDBF09942A883988488876
:101810005F846E847D848C849B84AA84B984C8840C
:10182000DF80EE80FD800C811B81AA81B981CE0F03
:10183000D11D0FB6F894DEBF0FBECDBFED010895E8
:04184000F894FFCF4A
:101844005265616C3A256400005365743A2025643E
:0C185400000025642E25303164000000E7
:00000001FF
