:100000000C9454000C940C020C944D020C9471004E
:100010000C9471000C9471000C9471000C9471009C
:100020000C9471000C9471000C9471000C944703B3
:100030000C9471000C9471000C94E7010C94710005
:100040000C9471000C9471000C9471000C9471006C
:100050000C9471000C9471000C9471000C9471005C
:100060000C9471000C9471000E1111111F191B1FBB
:100070001111111F040404040404040404150E04E3
:10008000040E15040404040401060C180E030608EB
:100090001111110A040810000F050509111F1100A4
:1000A0000E0011131519110011241FBECFEFD8E057
:1000B000DEBFCDBF11E0A0E0B1E0ECE9F8E102C0A5
:1000C00005900D92A632B107D9F721E0A6E2B1E082
:1000D00001C01D92A336B207E1F70E94A3060C945B
:1000E0004C0C0C940000569857985E9A5F9A54985E
:1000F00055985C9A5D9A089599B196FB332730F92B
:100100004F99326020912701822F8370381769F050
:1001100044E0249FC0011124932F982B9093270132
:10012000913E29F081E0923D19F080E008958FEF33
:10013000089599B194FB332730F94D99326020919D
:100140002601822F8370381769F044E0249FC00194
:100150001124932F982B90932601913E29F081E052
:10016000923D19F080E008958FEF089594B1976063
:1001700094B997B19C6397B92998662311F0289A8E
:1001800001C0289898B1937C98B983FD459A82FD67
:10019000449A81FD439A80FD429A2A9A8AE18A957F
:1001A000F1F700C02A98089594B1976094B9299AFC
:1001B000882311F0289A01C028982A9A87B1837C55
:1001C00087B988B18C6388B98AE18A95F1F700C054
:1001D0002A98359B02C088E001C080E03499846091
:1001E00033998260329981600895CF93DF93C82F4D
:1001F0000E94D400D82FD295D07F8C2F0E94D4009B
:100200008D2BDF91CF910895CF93DF93C82FD62FF9
:1002100082958F700E94B6006D2F8C2FDF91CF9149
:100220000C94B60080E00E94F500880F880B0895BA
:1002300060E083E00E94B6008FE19EE40197F1F751
:1002400000C0000060E083E00E94B60087EB91E010
:100250000197F1F700C0000060E083E00E94B60063
:100260000E9412018111FCCF60E082E00E94B60082
:100270000E9412018111FCCF60E088E20E9404011B
:100280000E9412018111FCCF60E081E00E94040114
:100290000E9412018111FCCF60E086E00E940401FF
:1002A0000E9412018111FCCF60E08CE00C940401EB
:1002B000CF93DF93D82FC62F0E9412018111FCCF5C
:1002C0008C2F90E4D99F800D112460E080680E94FB
:1002D0000401C0E00E941201882311F0C1E0FACFAE
:1002E0008C2FDF91CF9108950F931F93CF93DF93BE
:1002F000EC018E018881882359F00E94120181113E
:10030000FCCF219661E0F80180810E940401F1CFC9
:10031000DF91CF911F910F9108950F931F93CF936A
:10032000DF93182FEB010E9412018111FCCF28E00E
:10033000129FC001112460E080640E9404018E01BC
:10034000085F1F4F0E9412018111FCCFFE018491B2
:1003500061E00E94040121960C171D0799F70E9485
:1003600012018111FCCF60E080E8DF91CF911F91F5
:100370000F910C94040182E084BD93E095BD8093BD
:100380006E008AEF87BD08952FB7F8946091280119
:100390007091290180912A0190912B012FBF08951E
:1003A000E4E6F0E080818F7D8083EEE6F0E08081FE
:1003B0008260808308958FB7F8941092280110927C
:1003C000290110922A0110922B018FBF08951F92CC
:1003D0000F920FB60F9211248F939F93AF93BF93F9
:1003E0008091280190912901A0912A01B0912B01BF
:1003F0000196A11DB11D8093280190932901A0931E
:100400002A01B0932B01BF91AF919F918F910F90D3
:100410000FBE0F901F9018951F920F920FB60F925C
:1004200011242F933F934F935F936F937F938F93F9
:100430009F93AF93BF93EF93FF934A9B07C0109294
:1004400030011092310110922C010DC080913301C6
:10045000882391F081E08093300180933101809373
:100460002C010E94DB0180913D0190913E0184604E
:1004700090933E0180933D01FF91EF91BF91AF9129
:100480009F918F917F916F915F914F913F912F91AC
:100490000F900FBE0F901F9018951F920F920FB6DE
:1004A0000F9211248F934B9B04C081E08093330102
:1004B00002C0109233018F910F900FBE0F901F90CA
:1004C000189580937C0085E38A95F1F7000086EC0F
:1004D00080937A0080917A0086FDFCCF209178008D
:1004E0008091790090E0982F8827820F911D0895C0
:1004F0008F929F92AF92BF92CF92DF92EF92FF9234
:1005000080913D0190913E01892B09F4B7C0809103
:10051000500190915101892B09F0B0C080913801B0
:100520008F93809137018F9380E091E09F938F9319
:1005300082E591E09F938F930E9439098FE0809329
:1005400052018090390190903A01A0903B01B09007
:100550003C01C501B4010E9493076B017C01072E89
:10056000000C880B990B0E94CB079B01AC01C501C5
:10057000B4010E94AF0620E030E040E251E40E9466
:1005800080080E94ED080E9493077F936F93DF928B
:10059000CF92809136018F93809135018F9381E1C5
:1005A00091E09F938F938FE391E09F938F930E94AD
:1005B000390989E080933F0188E0809341018DB73C
:1005C0009EB740960FB6F8949EBF0FBE8DBF809128
:1005D0003401811124C080912F01882319F08AE011
:1005E0008093490180913201882319F08DE0809336
:1005F0005F0180912E01882319F08BE080935C01CC
:1006000080912D01882319F08CE080935C0180910A
:100610002C01882339F08EE080935C0103C085E4CF
:1006200080935F0110924F011092620160E080E0C0
:100630000E945801811108C00E94180181E090E0D9
:1006400090933E0180933D018FE391E00E947401FD
:1006500060E081E00E945801811108C00E941801E9
:1006600081E090E090933E0180933D0182E591E02E
:100670000E94740110923E0110923D01FF90EF9094
:10068000DF90CF90BF90AF909F908F9008951F9272
:100690000F920FB60F9211242F933F934F935F93B6
:1006A0006F937F938F939F93AF93BF93EF93FF933A
:1006B0000E947802FF91EF91BF91AF919F918F912E
:1006C0007F916F915F914F913F912F910F900FBE4E
:1006D0000F901F901895CF92DF92EF92FF929DE0BE
:1006E00088E10FB6F894A895809360000FBE9093B0
:1006F0006000A8952FEF80E792E021508040904065
:10070000E1F700C000000E941801A89580E090E089
:100710000E94EC0B7C01909338018093370183E0B9
:1007200090E00E94EC0BBC0180E090E00E94C907C1
:1007300020E030E040E251E40E942107609339015B
:1007400070933A0180933B0190933C0125E5E216BA
:1007500021E0F20660F08CE890E0909338018093FD
:10076000370168E775E080E090E00E94F20BC090EE
:100770003901D0903A01E0903B01F0903C0120E03B
:1007800030E040EA50E4C701B6010E947B08181629
:100790004CF020E030E0A901C701B6010E941C071F
:1007A00087FF12C080E090E0A0E8BFE380933901AA
:1007B00090933A01A0933B01B0933C016AE070E052
:1007C00083E090E00E94F20B0E94BB010E94D001E6
:1007D00080EA9FE090938900809388008091810057
:1007E00088608093810080916F00826080936F00A9
:1007F00080918100856080938100259A2D98249AAC
:100800002C9A519A599A239A2B9A509A589A399815
:10081000419A52985A9A53985B9A80916900807FC6
:1008200080936900809169008560809369008DB331
:1008300083608DBB4B9B04C081E08093330102C079
:10084000109233014A9B03C01092300103C081E033
:10085000809330010E94730068E870E08AE00E9493
:100860008D0160E870E08BE00E948D0168E770E028
:100870008CE00E948D0160E770E08DE00E948D01A8
:1008800068E670E08EE00E948D0160E970E08FE024
:100890000E948D0168E970E089E00E948D0160EAA4
:1008A00070E088E00E948D01109251011092500179
:1008B00083E090E090933E0180933D017894FF9017
:1008C000EF90DF90CF900895CF92DF92EF92FF925A
:1008D0000E947C00813051F46091370170913801A1
:1008E0006115710501F1615071090CC08F3FD9F498
:1008F0006091370170913801643581E0780798F490
:100900006F5F7F4F709338016093370180913D0195
:1009100090913E01816090933E0180933D0180E083
:1009200090E00E94F20B0E9499008130D9F4C090AF
:100930003901D0903A01E0903B01F0903C0120E079
:1009400030E0A901C701B6010E947B0818160CF01F
:1009500046C02DEC3CEC4CEC5DE3C701B6010E94B7
:10096000AF061CC08F3FD9F5C0903901D0903A0135
:10097000E0903B01F0903C0120E030E040EA50E4A0
:10098000C701B6010E941C0787FF29C02DEC3CEC73
:100990004CEC5DE3C701B6010E94B00660933901DB
:1009A00070933A0180933B0190933C0120913D016B
:1009B00030913E01226030933E0120933D0120E0C2
:1009C00030E040E251E40E9480080E949A0783E0F0
:1009D00090E0FF90EF90DF90CF900C94F20BFF909F
:1009E000EF90DF90CF900895CF92DF92EF92FF9239
:1009F00090913401809132019111E3C090913301C3
:100A0000891749F080913D0190913E018860909353
:100A10003E0180933D0180913301809332018091AA
:100A20003101811133C080913301882379F18091A4
:100A3000350190913601805591098B359105A8F4C7
:100A400080913001811122C081E080933001809338
:100A50002C0180913D0190913E01846090933E0174
:100A600080933D010E94DB0111C0809130018823F9
:100A700069F01092300180913D0190913E018460B7
:100A800090933E0180933D0110922C0180912C01A6
:100A9000882351F10E94C4010E94C9076B017C01A7
:100AA00020E030E04AE754E46091390170913A0166
:100AB00080913B0190913C010E9480089B01AC0118
:100AC000C701B6010E947B08181674F480913D019D
:100AD00090913E01846090933E0180933D0110927D
:100AE0002C0181E080932F0180913001882321F037
:100AF00080913201811102C010922F0180912F014B
:100B0000882309F447C02091370130913801809142
:100B1000350190913601A9014E5F5F4F4817590783
:100B2000B0F440912E01411104C040912D014111BA
:100B300009C040913D0150913E01406450933E01F7
:100B400040933D0110922E0141E040932D01A901F7
:100B50004250510984179507D0F440912E01442347
:100B600021F040912D01442349F040913D015091E5
:100B70003E01406450933E0140933D0141E040936B
:100B80002E0110922D0128173907D1F510C0281712
:100B90003907B1F580912E01811109C080912D0195
:100BA000811105C010922E0110922D0129C0809153
:100BB0003D0190913E01806490933E0180933D0100
:100BC000F1CF81110CC080912E01811108C080915C
:100BD0002D01811104C080912F01882349F080915B
:100BE0003D0190913E01806290933E0180933D01D2
:100BF0001092320110922E0110922D0110922F01AD
:100C0000FF90EF90DF90CF9008958091320188237C
:100C100011F02D9A01C02D9880912F01811102C0F1
:100C20002C9801C02C9A80913401811102C05998EE
:100C300001C0599A80912E01811102C02B9801C0E8
:100C40002B9A80912D01811102C058980895589ACD
:100C5000089580E490E00E9461029C01BC0180E064
:100C600090E0233941E0340778F40E94C90728ED69
:100C70003EE949E85FE30E9480089B01AC0163E321
:100C800073E588E294E420C02E33334078F40E9468
:100C9000C90720E733E44CEA5EE30E9480089B0129
:100CA000AC0160EA7AEC8BEB93E40EC00E94C907BA
:100CB00024E931E346EC5EE30E9480089B01AC012D
:100CC0006DEC7CEC82ED93E40E94AF060E949A07E3
:100CD0006634710510F460E070E080913501909108
:100CE0003601861B970B039768F07093360160936B
:100CF000350180913D0190913E01806190933E01CC
:100D000080933D0180913401319B0FC0882349F0CD
:100D100080913D0190913E01806290933E018093CD
:100D20003D0181E0809334010895811109C08091D3
:100D30003D0190913E01806290933E0180933D0180
:100D40001092340108950E946B03A8950E946404D8
:100D50000E9429060E94F4040E940506F6CF50580E
:100D6000BB27AA270E94C7060C9441080E9433089B
:100D700038F00E943A0820F039F49F3F19F426F425
:100D80000C9430080EF4E095E7FB0C942A08E92F48
:100D90000E94520858F3BA17620773078407950731
:100DA00020F079F4A6F50C9474080EF4E0950B2E5F
:100DB000BA2FA02D0B01B90190010C01CA01A001AD
:100DC0001124FF27591B99F0593F50F4503E68F108
:100DD0001A16F040A22F232F342F4427585FF3CF49
:100DE000469537952795A795F0405395C9F77EF41A
:100DF0001F16BA0B620B730B840BBAF09150A1F063
:100E0000FF0FBB1F661F771F881FC2F70EC0BA0FE8
:100E1000621F731F841F48F4879577956795B79570
:100E2000F7959E3F08F0B0CF9395880F08F099276B
:100E3000EE0F9795879508950E94060808F481E0C3
:100E400008950E9435070C9441080E943A0858F012
:100E50000E94330840F029F45F3F29F00C942A08DF
:100E600051110C9475080C9430080E94520868F3D4
:100E70009923B1F3552391F3951B550BBB27AA2753
:100E800062177307840738F09F5F5F4F220F331F8D
:100E9000441FAA1FA9F335D00E2E3AF0E0E832D055
:100EA00091505040E695001CCAF72BD0FE2F29D058
:100EB000660F771F881FBB1F261737074807AB072A
:100EC000B0E809F0BB0B802DBF01FF2793585F4F9F
:100ED0003AF09E3F510578F00C942A080C9475085E
:100EE0005F3FE4F3983ED4F3869577956795B79581
:100EF000F7959F5FC9F7880F911D9695879597F98C
:100F00000895E1E0660F771F881FBB1F6217730704
:100F10008407BA0720F0621B730B840BBA0BEE1F19
:100F200088F7E09508950E949A076894B1110C948F
:100F3000750808950E945A0888F09F5798F0B92FB5
:100F40009927B751B0F0E1F0660F771F881F991FFE
:100F50001AF0BA95C9F714C0B13091F00E94740824
:100F6000B1E008950C947408672F782F8827B85F34
:100F700039F0B93FCCF3869577956795B395D9F756
:100F80003EF490958095709561957F4F8F4F9F4F60
:100F90000895E89409C097FB3EF49095809570956C
:100FA00061957F4F8F4F9F4F9923A9F0F92F96E9B5
:100FB000BB279395F695879577956795B795F1112A
:100FC000F8CFFAF4BB0F11F460FF1BC06F5F7F4FC7
:100FD0008F4F9F4F16C0882311F096E911C07723D9
:100FE00021F09EE8872F762F05C0662371F096E8E2
:100FF000862F70E060E02AF09A95660F771F881FB1
:10100000DAF7880F9695879597F90895990F000854
:10101000550FAA0BE0E8FEEF16161706E807F907CA
:10102000C0F012161306E407F50798F0621B730B65
:10103000840B950B39F40A2661F0232B242B252BE6
:1010400021F408950A2609F4A140A6958FEF811D89
:10105000811D089597F99F6780E870E060E008952A
:101060009FEF80EC089500240A94161617061806C0
:101070000906089500240A9412161306140605069C
:101080000895092E0394000C11F4882352F0BB0F2D
:1010900040F4BF2B11F460FF04C06F5F7F4F8F4F90
:1010A0009F4F089557FD9058440F551F59F05F3FCB
:1010B00071F04795880F97FB991F61F09F3F79F07A
:1010C00087950895121613061406551FF2CF4695FC
:1010D000F1DF08C0161617061806991FF1CF86957E
:1010E0007105610508940895E894BB276627772762
:1010F000CB0197F908950E94060808F48FEF089530
:101100000E9493080C9441080E94330838F00E9412
:101110003A0820F0952311F00C942A080C9430081A
:1011200011240C9475080E94520870F3959FC1F326
:10113000950F50E0551F629FF001729FBB27F00D85
:10114000B11D639FAA27F00DB11DAA1F649F6627DA
:10115000B00DA11D661F829F2227B00DA11D621F29
:10116000739FB00DA11D621F839FA00D611D221FE3
:10117000749F3327A00D611D231F849F600D211DC7
:10118000822F762F6A2F11249F5750409AF0F1F04A
:1011900088234AF0EE0FFF1FBB1F661F771F881FB3
:1011A00091505040A9F79E3F510580F00C942A08B9
:1011B0000C9475085F3FE4F3983ED4F386957795D9
:1011C0006795B795F795E7959F5FC1F7FE2B880F59
:1011D000911D9695879597F908950E94210930F001
:1011E0009F3710F40C9475080C94F8080C941309AC
:1011F000882371F4772321F09850872B762F07C02E
:10120000662311F499270DC09051862B70E060E0A1
:101210002AF09A95660F771F881FDAF7880F969540
:10122000879597F908959F3F31F0915020F4879565
:1012300077956795B795880F911D9695879597F93E
:1012400008950E945A08A0F0BEE7B91788F4BB279A
:101250009F3860F41616B11D672F782F8827985F86
:10126000F7CF869577956795B11D93959639C8F315
:101270000895AEE0B0E0EFE3F9E00C94230C0D89A3
:101280001E8986E08C831A8309838FEF9FE79E83F4
:101290008D83AE01475E5F4F6F89788DCE010196D9
:1012A0000E945B09EF81F885E00FF11F10822E96F6
:1012B000E4E00C943F0CABE0B0E0E1E6F9E00C9424
:1012C000150C6C017B018A01FC0117821682838157
:1012D00081FFCCC1CE0101963C01F6019381F7015B
:1012E00093FD859193FF81917F01882309F4BAC111
:1012F000853239F493FD859193FF81917F01853289
:1013000029F4B60190E00E94520BE7CF912C212CDA
:10131000312CFFE1F315D8F08B3279F038F48032BC
:1013200079F08332A1F4232D20611DC08D3261F04C
:10133000803369F4232D216016C0832D8260382EFE
:10134000E32DE4603E2E2AC0F32DF8601DC037FC6B
:101350002DC020ED280F2A3040F08E32B9F436FC33
:1013600081C1232D2064322E19C036FE06C08AE0CA
:10137000989E200D1124922E11C0EAE02E9E200D81
:101380001124222EF32DF0623F2E08C08C3621F45A
:10139000832D8068382E02C0883641F4F70193FD12
:1013A000859193FF81917F018111B3CF982F9F7D0C
:1013B0009554933028F40C5F1F4F9FE399830DC021
:1013C000833631F0833771F0833509F059C021C07D
:1013D000F801808189830E5F1F4F88248394912CAC
:1013E000530113C02801F2E04F0E511CF801A080F8
:1013F000B18036FE03C0692D70E002C06FEF7FEF51
:10140000C5010E94470B4C018201F32DFF773F2E4F
:1014100016C0280122E0420E511CF801A080B180C4
:1014200036FE03C0692D70E002C06FEF7FEFC5018B
:101430000E943C0B4C01F32DF0683F2E820133FCDF
:101440001BC0822D90E088169906B0F4B60180E2A8
:1014500090E00E94520B2A94F4CFF50137FC85915D
:1014600037FE81915F01B60190E00E94520B21107E
:101470002A9421E0821A91088114910471F7E8C03E
:10148000843611F0893641F5F80137FE07C06081D6
:101490007181828193810C5F1F4F08C060817181CF
:1014A000072E000C880B990B0E5F1F4FF32DFF7654
:1014B0003F2E97FF09C090958095709561957F4F5D
:1014C0008F4F9F4FF0683F2E2AE030E0A3010E942B
:1014D0008E0B882E861845C0853731F4232D2F7E3C
:1014E000B22E2AE030E025C0932D997FB92E8F3699
:1014F000C1F018F4883579F0B5C0803719F0883715
:1015000021F0B0C0E92FE061BE2EB4FE0DC0FB2D6E
:10151000F460BF2E09C034FE0AC0292F2660B22E07
:1015200006C028E030E005C020E130E002C020E144
:1015300032E0F801B7FE07C060817181828193813A
:101540000C5F1F4F06C06081718180E090E00E5FEC
:101550001F4FA3010E948E0B882E8618FB2DFF774C
:101560003F2E36FE0DC0232D2E7FA22E891458F457
:1015700034FE0BC032FC09C0832D8E7EA82E05C020
:10158000B82CA32C03C0B82C01C0B92CA4FE0FC0EA
:10159000FE01E80DF11D8081803321F49A2D997EA2
:1015A000A92E09C0A2FE06C0B394B39404C08A2D2C
:1015B000867809F0B394A3FC11C0A0FE06C0B21453
:1015C00088F4280C922C9B180EC0B21460F4B6015B
:1015D00080E290E00E94520BB394F7CFB21418F45B
:1015E0002B1802C0982C212CA4FE10C0B60180E359
:1015F00090E00E94520BA2FE17C0A1FC03C088E736
:1016000090E002C088E590E0B6010CC08A2D867893
:1016100059F0A1FE02C08BE201C080E2A7FC8DE27E
:10162000B60190E00E94520B891438F4B60180E3B1
:1016300090E00E94520B9A94F7CF8A94F301E80D40
:10164000F11D8081B60190E00E94520B8110F5CF10
:10165000222009F442CEB60180E290E00E94520BB3
:101660002A94F6CFF6018681978102C08FEF9FEF13
:101670002B96E2E10C94310CFC0105906150704016
:101680000110D8F7809590958E0F9F1F0895FC014B
:101690006150704001900110D8F7809590958E0FA1
:1016A0009F1F08950F931F93CF93DF93FB01238117
:1016B00021FD03C08FEF9FEF2CC022FF16C0468193
:1016C0005781248135814217530744F4A081B181A9
:1016D0009D012F5F3F4F318320838C93268137817B
:1016E0002F5F3F4F3783268314C08B01EC01FB0132
:1016F0000084F185E02D0995892BE1F6D801169635
:101700008D919C911797019617969C938E9316979F
:10171000CE01DF91CF911F910F910895FA01AA2771
:10172000283051F1203181F1E8946F936E7F6E5F24
:101730007F4F8F4F9F4FAF4FB1E03ED0B4E03CD0D2
:10174000670F781F891F9A1FA11D680F791F8A1FB5
:10175000911DA11D6A0F711D811D911DA11D20D01C
:1017600009F468943F912AE0269F11243019305DD6
:101770003193DEF6CF010895462F4770405D4193C7
:10178000B3E00FD0C9F7F6CF462F4F70405D4A3314
:1017900018F0495D31FD4052419302D0A9F7EACFDC
:1017A000B4E0A6959795879577956795BA95C9F70B
:1017B00000976105710508959B01AC010A2E0694FE
:1017C0005795479537952795BA95C9F7620F731FB7
:1017D000841F951FA01D0895A8E1B0E042E050E0ED
:1017E0000C94F90B0E94070C272F0C94080CDC01B9
:1017F000CB01FC01F999FECF06C0F2BDE1BDF89A1C
:10180000319600B40D9241505040B8F70895262FFC
:10181000F999FECF1FBA92BD81BD20BD0FB6F894D5
:10182000FA9AF99A0FBE019608952F923F924F921D
:101830005F926F927F928F929F92AF92BF92CF9260
:10184000DF92EF92FF920F931F93CF93DF93CDB769
:10185000DEB7CA1BDB0B0FB6F894DEBF0FBECDBFE1
:1018600009942A88398848885F846E847D848C84B2
:101870009B84AA84B984C884DF80EE80FD800C81BB
:101880001B81AA81B981CE0FD11D0FB6F894DEBF9E
:0C1890000FBECDBFED010895F894FFCF0E
:10189C0020435441483A2533642020202020202026
:1018AC000020452043543A25336420202025642E03
:0618BC002530316420001C
:00000001FF
